:020000040000fa
:080000000002040000000000f2
:020000040000fa
:100400000f0221000eff21000e01880000000000f5
:1004100000012000200288000c000700e06020009e
:10042000010020000f000700000020000000e00095
:10043000020032000000020000000000d0050200af
:10044000000000000040da000000fe002000200054
:100450000000e0000200320010002000900188003f
:1004600000000600a1028800800078000000eb0078
:100470001a003700e280400054a0b4009101ba0095
:10048000e280400054a0b4009102ba00e280400033
:1004900054a0b4000002eb00472bde00f507b200c9
:1004a000a6018800602ce10008003a000049eb003a
:1004b0000201e800020039003420ec0002f0a00044
:1004c0008301e900f9ff3e00040037006128e100e4
:1004d000010032000082eb00040007001101ba00a5
:1004e0000200e000e3ff3a000000060004d0a30091
:1004f000e20f49001c003900810278003549ba003a
:100500000201e800020039003420ec0002f0a000f3
:100510008301e9000f0032002549ba000201e8001a
:10052000020039003420ec0002f0a0008301e90051
:10053000080032000400e0000600320015c9ba00cd
:100540000201e800020039003420ec0002f0a000b3
:100550008301e9008180e80054a0b4000300e000ba
:10056000e2ff3a00000006009102ba000559780047
:100570008301e900f7ff3200c82ade000559780040
:100580008301e900f3ff32000400e000f1ff3200d4
:1005900011d9ba00eeff3700849fbe00861f780095
:1005a0000000fa000108a900000000000419800002
:1005b00061026200e00f5200fcff32008470800094
:1005c0004722de006142620004c2ea00614262002a
:1005d0000482fb00610262004722dd008670800019
:1005e000f5f72f0085026300048272008470880092
:1005f000051880004418800084824200841880001e
:1006000084824200c4188000048242004222de003c
:10061000f4808800f5808000f40f200004826200de
:1006200064808800f48080004822de0074808800a6
:1006300074808000c822dd006480800084827200a3
:10064000040121003502980015188000541880001c
:10065000848242009418800084824200d418800072
:10066000048242004222de00f4808800f58080008f
:10067000f40f20000482620004808800f48080006f
:100680004822de001480880014808000c822dd002b
:10069000048080008482720004012100050a780031
:1006a000251880006418800084824200a41880000d
:1006b00084824200e4188000048242004222de006c
:1006c000f4808800f5808000f40f2000048262002e
:1006d00024808800f48080004822de003480880076
:1006e00034808000c822dd00248080008482720073
:1006f000040121001502980035188000741880004c
:1007000084824200b418800084824200f418800081
:10071000048242004222de00f4808800f5808000de
:10072000f40f20000482620044808800f48080007e
:100730004822de005480880054808000c822dd00fa
:100740004480800084827200040121002502980008
:100750000080fa004f0378004f02be000040060000
:100760000200fa00000f78001e82ea004f22de002d
:100770008442780014c0b3001e037800e70f5300d2
:10078000010034000042eb0004c26200e04f52005e
:10079000060032001e02780084024200040021009c
:1007a0000482420014027800010037000082eb004e
:1007b000040078000080fa00000006000200fa0041
:1007c000000f78001e82ea004f22de00844278008b
:1007d00014c0b3001e037800e30f5300010034007f
:1007e0000042eb0004c26200e04f520006003200fb
:1007f000050121001e02780004024200048242002a
:1008000014027800010037000082eb000400780039
:100810000080fa00000006000000fa0024f0210029
:10082000241988000002eb001419880004198000c4
:100830000450a1000460a0000470a1000419880005
:100840002063a800041980000480a1000490a10086
:10085000041988002043a800141980000480a10016
:100860000490a000141988001519800034f82f0096
:1008700004826200c400b300141988002223a90076
:1008800025e3a90021e3a8004519800004fe2f00fc
:10089000048262003400b3004419880028e3a900f0
:1008a0002603a900341980000410a1000420a1002f
:1008b000341988000e0ea8000e2ea8001e0ea800e7
:1008c0001e2ea800000ea800002ea800100ea800e2
:1008d000102ea8000080fa00000006000040da0098
:1008e0000000fe000000fa000108a900e702600015
:1008f00084ff2f002642800006026200050272007b
:1009000024428800680060004300de00610060004f
:100910004800dd00f4ef2f00054180000502620071
:1009200000027200044188000080fa000000060006
:100930000000fa000a21ef00710888009008880082
:080940000080fa00000006002f
:020000040000fa
:100008006e0400006e0400006e0400006e04000020
:100018006e0400006e0400006e0400006e04000010
:100028006e0400006e0400006e0400006e04000000
:100038006e0400006e0400006e0400006e040000f0
:10004800cc0200006e0400006e0400006e04000084
:100058006e0400006e0400006e0400006e040000d0
:100068006e0400006e0400006e0400006e040000c0
:100078006e0400006e0400006e0400006e040000b0
:100088006e0400006e0400006e0400006e040000a0
:020000040000fa
:04aff400ffff00005b
:020000040000fa
:04aff00078ff0000e6
:020000040000fa
:04afec009eff0000c4
:020000040000fa
:04afe80067ff0000ff
:020000040000fa
:04afe400dfff00008b
:020000040000fa
:04afe000cfff00009f
:020000040000fa
:100948000200fa00000f78001e02780044118800a7
:1009580004002800041188000440280014118800ad
:100968000168a9000080fa00000006000200fa00f1
:10097800004f7800000000001511800004202000be
:1009880004826200e00f5200fbff3a001e02fb00e7
:10099800241188000080fa00000006000200fa0016
:1009a80000000000054080000480200004826200ee
:1009b800e00f5200fbff320034118000044f780032
:1009c8000168a9001e427800044078000080fa00ff
:1009d800000006000400fa00204798000042eb00df
:1009e800044f7800070037002e4290000442e900c7
:1009f800844278002e42900004c262002447980086
:100a08001e4fe8002e429000e04f5200f6ff3a00d9
:100a18001e427800044078000080fa0000000600ba
:100a28000400fa00204798002e429000614f6200af
:100a38001e427800044078000080fa00000006009a
:100a48000000fa00881f7800a0c7b300c7ff07009e
:100a580050c6b300c5ff07000002eb00c480880041
:100a680047003700c48080000400780051ff070069
:100a78000002780004427800044078001cf0b700b7
:100a8800c4808000040078004aff07000002780054
:100a980005f02000050262004822de0004427800ca
:100aa800044078001df0b700c480800005012000d4
:100ab800042add0084427800d40121001442780021
:100ac80004c27200044078001df0b700d401210070
:100ad8001442780004407800beff07000044780004
:100ae800c40121001442780004407800b9ff0700cf
:100af8000042780004424400044078001af0b7002d
:100b0800c40121001442780004407800c4ff0700a3
:100b180000447800d4012100144278000440780091
:100b2800bfff0700004278000442440004407800f8
:100b38001bf0b700d401210014427800044078006b
:100b48008aff0700c401210014427800044078009d
:100b580086ff0700a40121001442780004407800b1
:100b680082ff0700b4012100144278000440780095
:100b78007eff0700c48080000402e800c48088006b
:100b8800c4808000e20f5200b6ff36004f047800a0
:100b98000080fa00000006000000fa001cff0700b1
:100ba8001000200066ff070040a7a900240280006b
:100bb8000400a0002402880015348000f40f2c00e3
:100bc80084826200041020000482720014348800b9
:100bd800174ea900114ea800176ea900116ea800a3
:100be80016eea90010eea90016cea90010cea80096
:100bf80016aea90010aea800c0ff2f0037ff0700ef
:100c0800f1002000d0fa2d0047ff07008cff0700f5
:040c1800feff3700a4
:020000040000fa
:100c1c00001000001800000082000000000000001e
:100c2c0000000000000000000000000000000000b8
:100c3c000000000000000000000000001e1000007a
:100c4c0002000000800000001810000006000000e8
:100c5c008200000000000000000000000000000006
:020000040000fa
:0c0c6c000000fa000080fa000000060002
:00000001FF
