:020000040000fa
:080000000002040000000000f2
:020000040000fa
:10040000af0121000eff21000e0188000000000056
:1004100000012000200288000c0007004059200045
:10042000010020000f000700000020000000e00095
:100430000200320000000200000000001c05020063
:10044000000000000040da000000fe002000200054
:100450000000e0000200320010002000900188003f
:1004600000000600a1028800800078000000eb0078
:100470001a003700e280400054a0b4009101ba0095
:10048000e280400054a0b4009102ba00e280400033
:1004900054a0b4000002eb00472bde00f507b200c9
:1004a000a6018800602ce10008003a000049eb003a
:1004b0000201e800020039003420ec0002f0a00044
:1004c0008301e900f9ff3e00040037006128e100e4
:1004d000010032000082eb00040007001101ba00a5
:1004e0000200e000e3ff3a000000060004d0a30091
:1004f000e20f49001c003900810278003549ba003a
:100500000201e800020039003420ec0002f0a000f3
:100510008301e9000f0032002549ba000201e8001a
:10052000020039003420ec0002f0a0008301e90051
:10053000080032000400e0000600320015c9ba00cd
:100540000201e800020039003420ec0002f0a000b3
:100550008301e9008180e80054a0b4000300e000ba
:10056000e2ff3a00000006009102ba000559780047
:100570008301e900f7ff3200c82ade000559780040
:100580008301e900f3ff32000400e000f1ff3200d4
:1005900011d9ba00eeff3700849fbe00861f780095
:1005a0000000fa000108a900847080004722de00e4
:1005b0006142620004c2ea00614262000482fb0000
:1005c000610262004722dd0086708000f5f72f008f
:1005d00085026300048272008470880000000000bd
:1005e0000419800061026200e00f5200fcff32003b
:1005f00015188000541880008482420094188000ee
:1006000084824200d4188000048242004222de002c
:10061000c4808800c5808000f40f2000048262003e
:1006200004808800c48080004822de001480880096
:1006300014808000c822dd000480800004827200e3
:10064000648088002518800064188000848242003d
:10065000a418800084824200e418800004824200d2
:100660004222de00c4808800c5808000f40f200094
:100670000482620024808800c48080004822de005a
:100680003480880034808000c822dd00248080000f
:10069000048272007480880035188000741880000d
:1006a00084824200b418800084824200f4188000e2
:1006b000048242004222de00c4808800c58080009f
:1006c000f40f20000482620044808800c48080000f
:1006d0004822de005480880054808000c822dd005b
:1006e00044808000048272008480880084708000ce
:1006f0004722de006142620004c2ea0061426200f9
:100700000482fb00610262004722dd0086708000e7
:10071000f5f72f0085026300048272008470880060
:100720000080fa004f0378004f02be000040060030
:100730000200fa00000f78001e82ea004f22de005d
:100740008442780014c0b3001e037800e50f530004
:10075000010034000042eb0004c26200e04f52008e
:10076000060032001e0278008402420004002100cc
:100770000482420014027800010037000082eb007e
:10078000040078000080fa00000006000200fa0071
:10079000000f78001e82ea004f22de0084427800bb
:1007a00014c0b3001e037800e20f530001003400b0
:1007b0000042eb0004c26200e04f5200060032002b
:1007c0001e02780084024200c4002100048242001c
:1007d00014027800010037000082eb00040078006a
:1007e0000080fa00000006000000fa0024f021005a
:1007f000241988000002eb001419880004198000f5
:100800000450a1000460a0000470a1000419880035
:100810002063a800041980000480a1000490a100b6
:10082000041988002043a800141980000480a10046
:100830000490a000141988001519800034f82f00c6
:1008400004826200c400b300141988002223a900a6
:1008500025e3a90021e3a8004519800004fe2f002c
:10086000048262003400b3004419880028e3a90020
:100870002603a900341980000410a1000420a1005f
:10088000341988000e0ea8000e2ea8001e0ea80017
:100890001e2ea800000ea800002ea800100ea80012
:1008a000102ea8000080fa00000006000040da00c8
:1008b0000000fe000000fa000108a900e702600045
:1008c00084ff2f00264280000602620005027200ab
:1008d00024428800680060004300de006100600080
:1008e0004800dd00f4ef2f000541800005026200a2
:1008f00000027200044188000080fa000000060037
:100900000000fa000a21ef007108880090088800b2
:080910000080fa00000006005f
:020000040000fa
:100008005604000056040000560400005604000080
:100018005604000056040000560400005604000070
:100028005604000056040000560400005604000060
:100038005604000056040000560400005604000050
:10004800cc020000560400005604000056040000cc
:100058005604000056040000560400005604000030
:100068005604000056040000560400005604000020
:100078005604000056040000560400005604000010
:100088005604000056040000560400005604000000
:020000040000fa
:04aff400ffff00005b
:020000040000fa
:04aff00078ff0000e6
:020000040000fa
:04afec005aff000008
:020000040000fa
:04afe80067ff0000ff
:020000040000fa
:04afe400dfff00008b
:020000040000fa
:04afe000cfff00009f
:020000040000fa
:100918000200fa00000f78000168a9002062a80010
:100928001e02780044118800040028000411880081
:1009380004402800141188002342a8000080fa000f
:10094800000006000200fa00004f780000000000d6
:10095800151180000420200004826200e00f52007c
:10096800fbff3a001e02fb00241188000080fa00f9
:10097800000006000200fa000000000005408000a8
:100988000480200004826200e00f5200fbff320066
:1009980034118000044f78000168a9001e427800d5
:1009a800044078000080fa00000006000400fa0005
:1009b800204798000042eb00044f780007003700fa
:1009c8002e4290000442e900844278002e429000b2
:1009d80004c26200244798001e4fe8002e4290008f
:1009e800e04f5200f6ff3a001e42780004407800bb
:1009f8000080fa00000006000400fa002047980072
:100a08002e429000614f62001e4278000440780038
:100a18000080fa00000006000000fa0000c3b300de
:100a2800c8ff0700000000000080fa000000060070
:100a38000000fa00a4042000343a8800243a800018
:100a48000460a1000470a100243a8800253a8000bf
:100a580004fe2f0004826200243a88001600200059
:100a680084072000a509200037742000844b7800f3
:100a7800854b7800864b780016002000640420001f
:100a88007505200027742000844b7800854b78007a
:100a9800864b780000000000153a8000040027000b
:100aa8008482620004002100848f5200faff3a0019
:100ab80000000000153a8000040220000482620051
:100ac800e00f5200fbff320045ff07000000eb007b
:100ad8008fff070040a7a900240280000400a0009f
:100ae8002402880015348000f40f2c0084826200f0
:100af80004102000048272001434880016cea90065
:100b080010cea80090ff2f0068ff0700f10f20000b
:100b1800d0fa2d0078ff0700bfff0700feff37005f
:020000040000fa
:100b28000010000012000000820000000000000019
:100b380000000000000000000000000000000000ad
:100b480000000000181000000200000080000000f3
:100b580012100000060000008200000000000000e3
:080b6800000000000000000085
:020000040000fa
:0c0b70000000fa000080fa0000000600ff
:00000001FF
