:020000040000fa
:080000000002040000000000f2
:020000040000fa
:100400006f1c21000eff21000e018800000000007b
:1004100000012000200288000c00070000ac200032
:10042000010020000f000700000020000000e00095
:10043000020032000000020000000000fa0a020080
:10044000000000000040da000000fe002000200054
:100450000000e0000200320010002000900188003f
:1004600000000600a1028800800078000000eb0078
:100470001a003700e280400054a0b4009101ba0095
:10048000e280400054a0b4009102ba00e280400033
:1004900054a0b4000002eb00472bde00f507b200c9
:1004a000a6018800602ce10008003a000049eb003a
:1004b0000201e800020039003420ec0002f0a00044
:1004c0008301e900f9ff3e00040037006128e100e4
:1004d000010032000082eb00040007001101ba00a5
:1004e0000200e000e3ff3a000000060004d0a30091
:1004f000e20f49001c003900810278003549ba003a
:100500000201e800020039003420ec0002f0a000f3
:100510008301e9000f0032002549ba000201e8001a
:10052000020039003420ec0002f0a0008301e90051
:10053000080032000400e0000600320015c9ba00cd
:100540000201e800020039003420ec0002f0a000b3
:100550008301e9008180e80054a0b4000300e000ba
:10056000e2ff3a00000006009102ba000559780047
:100570008301e900f7ff3200c82ade000559780040
:100580008301e900f3ff32000400e000f1ff3200d4
:1005900011d9ba00eeff37000040da000000fe007b
:1005a0000000fa000068a900e7026000cc2add0024
:1005b000f4ff280006428000060262000502720075
:1005c000044288006800600074ff2f00054180002d
:1005d0000502620000007200004188000080fa00fd
:1005e000000006000000fa000108a900e702600010
:1005f00084ff2f002642800006026200050272007e
:1006000024428800680060004300de006100600052
:100610004800dd00f4ef2f00054180000502620074
:1006200000027200044188000080fa000000060009
:100630000000fa000021ef0011088800200888005f
:100640000080fa00000006000000fa000a21ef0016
:1006500071088800900888000080fa0000000600f9
:020000040000fa
:04afec007dff0000e5
:020000040000fa
:04aff000f8ff000066
:020000040000fa
:10000800cc020000cc020000cc020000cc020000b0
:10001800cc020000cc020000cc020000cc020000a0
:10002800cc020000cc020000cc020000e209000073
:10003800cc020000cc020000cc020000cc02000080
:100048002a040000cc020000cc020000cc02000010
:10005800cc020000cc020000cc020000cc02000060
:10006800cc020000cc020000cc020000cc02000050
:10007800cc020000cc020000cc020000cc02000040
:10008800cc020000cc020000cc020000cc02000030
:020000040000fa
:04aff400ffff00005b
:020000040000fa
:04afe000cfff00009f
:020000040000fa
:100660000000fa0024f02100241988000002eb00a9
:1006700014198800041980000450a1000460a0002f
:100680000470a100041988002063a80004198000e8
:100690000480a1000490a100041988002043a80050
:1006a000141980000480a1000490a000141988008f
:1006b0001519800034f82f0004826200c400b300d2
:1006c000141988002223a90025e3a90021e3a8002a
:1006d0004519800004fe2f00048262003400b3003c
:1006e0004419880028e3a9002603a90034198000d2
:1006f0000410a1000420a100341988000e0ea800e7
:100700000e2ea8001e0ea8001e2ea800000ea80087
:10071000002ea800100ea800102ea800c200200075
:10072000211b2100801821007f0107000080fa00b2
:10073000000006000200fa00000f78001e02780098
:10074000e00f5200090035001e027800e50f52004c
:1007500006003c001e027800840242004419210079
:100760000482420014027800010037000082eb008e
:10077000040078000080fa00000006000200fa0081
:10078000000f78001e027800e00f520009003500cb
:100790001e027800e20f520006003c001e027800a4
:1007a00084024200041a21000482420014027800ec
:1007b000010037000082eb00040078000080fa009e
:1007c000000006000200fa00000f78001e02780008
:1007d000e00f5200090035001e027800e20f5200bf
:1007e00006003c001e02780084024200641a2100c8
:1007f0000482420014027800010037000082eb00fe
:10080000040078000080fa00000006000200fa00f0
:10081000000f78001e027800e00f5200090035003a
:100820001e027800e20f520006003c001e02780013
:1008300084024200c41a210004824200140278009b
:10084000010037000082eb00040078000080fa000d
:10085000000006003600f800809fbe00829fbe00a8
:10086000849fbe00869fbe000600fa000108a90012
:10087000a47080004622de006142620004c2ea00e9
:10088000614262000482fb00610262004622dd00d8
:10089000a6708000f5fb2f008502630004827200c1
:1008a000a47088000000000004198000610262004a
:1008b000e00f5200fcff32000002eb00040f780052
:1008c0000002eb00140798000002eb0024079800d8
:1008d000051880004418800084824200841880003b
:1008e00084824200c4188000048242004222de005a
:1008f000348c8800348c800084027800f40f20004f
:100900000482620014079800348c80004822de00c4
:10091000240798002e029000c822dd001e029000dd
:10092000048f7200151880005418800084824200e1
:100930009418800084824200d4188000048242000f
:100940004222de00348c8800358c8000f40f2000b9
:1009500004826200a48c8800348c80004822de006f
:10096000b48c8800b48c8000c822dd00a48c800088
:1009700004827200048d88002518800064188000ad
:1009800084824200a418800084824200e41880001f
:10099000048242004222de00348c8800358c8000c4
:1009a000f40f200004826200c48c8800348c800024
:1009b0004822de00d48c8800d48c8000c822dd0060
:1009c000c48c800004827200148d88003518800069
:1009d0007418800084824200b4188000848242002f
:1009e000f4188000048242004222de00348c880029
:1009f000358c8000f40f200004826200e48c8800b3
:100a0000348c80004822de00f48c8800f48c800056
:100a1000c822dd00e48c800004827200248d8800ee
:100a20000e0007008f000700348d8000648d880061
:100a3000448d8000748d8800548d8000848d8800e2
:100a40000080fa004f03be004f02be004f01be00ff
:100a50004f00be003600f900004006000c00fa000e
:100a60000002eb00040f78000002eb00140798006e
:100a70000002eb00240798000002eb0054079800e6
:100a80000002eb00340798000002eb0044079800d6
:100a900014002000440798006c0037003e029000cc
:100aa0000402e800340798004e02900015fc2f0065
:100ab00084824200e4ff2f00842ab8008402780078
:100ac0000400210004824200048c8800048c800011
:100ad0009402780055079800048c80000482e80096
:100ae000de029000050a78005e0290001e0f4200b0
:100af0004e02900015fc2f0084824200e4ff2f007c
:100b0000842ab8008402780004082100048242008c
:100b1000148c8800148c800094027800550798008b
:100b2000148c80000482e800de029000050a780040
:100b30009e0290005e02900004824200140798001a
:100b40004e02900015fc2f0084824200e4ff2f002b
:100b5000842ab80084027800041021000482420034
:100b6000248c8800248c800094027800550798001b
:100b7000248c80000482e800de029000050a7800e0
:100b8000ae0290005e0290000482420024079800aa
:100b9000ce029000f4032000848f520010003a002f
:100ba000048d800004808800148d800004848800f7
:100bb000248d800004888800048080001e0f42007d
:100bc000048480009e029000048242001407980072
:100bd00004888000ae02900004824200240798003e
:100be000658d8000648d80004322de008482520087
:100bf0001e0278004922de0004824200348d880003
:100c0000758d8000748d80004322de008482520046
:100c10001e0290004922de0004824200448d8800ba
:100c2000858d8000848d80004322de008482520006
:100c30002e0290004922de0004824200548d88007a
:100c40004e0290000402e80044079800ce02900093
:100c5000f4032000848f520090ff36000080fa00d9
:100c6000000006000000fa00658d8000348d8000d1
:100c7000848f520004003200120020001100200076
:100c8000801821004e000700758d8000448d800083
:100c9000848f520004003200120020001100200056
:100ca0008018210046000700858d8000548d80004b
:100cb000848f520004003200120020001100200036
:100cc000801821003e0007000080fa0000000600a6
:100cd0000200fa00000f78001e0278004402900023
:100ce00004f0a7000402ea000402e9004f22de003b
:100cf000040078000080fa00000006000200fa00fc
:100d0000000f78001e0278003402900004f0a70063
:100d10000402ea000402e9004f22de000400780029
:100d20000080fa00000006000600fa00000f7800bc
:100d300011079800220798001e0278009e0290007a
:100d4000050a78001e027800ae0290005502980055
:100d50001e007800040007001e02780004007800de
:100d60000080fa00000006000400fa001007980056
:100d70001e029000b4029000050f78001e02900041
:100d80008002eb00150298001e0290008002eb002a
:100d9000250298001e0290008002eb0035029800a8
:100da0001e029000d40290001e029000450298009e
:100db0001e027800040078000080fa00000006009f
:100dc0000800fa00889fbe001007980021079800cd
:100dd000320798000002eb00040f78001e0290001a
:100de000240490001e029000d40490001e00900085
:100df000b7ff070000027800e00f52000200320047
:100e00003e029000300037001e029000c4029000a5
:100e10003e029000848f520007003d001e029000a9
:100e200044029000be029000048f52001e02900007
:100e3000c4029000350798001e029000b402900092
:100e40003e029000848242001e029000350298000b
:100e50001e029000c40290003e0290008482520064
:100e60001e02900045029800110037001e029000fb
:100e70009402780008027800848242002e029000da
:100e800014427800844a78000804e8002e0290009a
:100e90000402e80024079800890f5400010035007f
:100ea0000004eb003e0290000402e90034079800c1
:100eb0003e029000e00f5200ecff3c001e0290004a
:100ec000280298001e027800040078004f04be003b
:100ed0000080fa00000006000600fa0010079800e3
:100ee000210798002e02900014427800044f7800e9
:100ef000120020008e0078001e009000b0ff070056
:100f000000027800040078000080fa00000006006b
:100f10000400fa00100798001e00900077ff0700f9
:100f200000027800e00f5200020032000082eb0065
:100f3000200037001e029000940278001e029000ec
:100f40001402900004824200144f78001e029000a8
:100f5000140290008402e8001e029000150298001e
:100f60001e029000940290001e0290005402900015
:100f7000848f5200030035001e0290008002eb00b7
:100f8000150298001e029000340290008402e900cd
:100f90001e029000350298001e029000440290004c
:100fa0008402e8001e029000450298009e427800ec
:100fb0000582fb00040078000080fa0000000600b3
:100fc0000600fa0010079800210798001e00900004
:100fd000cfff070000027800040f78001e0278009f
:100fe000e00f520002003d001e02780005003700ad
:100ff0001e02780004427800ae029000844a780015
:101000000002eb00040078000080fa0000000600f7
:101010000800fa00889fbe0010079800210798007a
:10102000320798001e029000140490001e029000e7
:10103000d40490001e00900030ff070000027800ea
:10104000e00f5200020032000002eb002e003700d9
:101050001e029000b40290003e029000848f520065
:1010600003003d001e029000b40290003507980076
:101070003e029000040f78001e029000b40290001f
:101080003e029000848252001e02900035029800b9
:101090001e029000c40290003e0290008482420032
:1010a0001e02900045029800110037001e029000b9
:1010b000940278000802780004824200144278000a
:1010c000ae029000844a78002e0290000402e800ec
:1010d000240798000804e800890f54000100350037
:1010e0000004eb003e0290000402e900340798007f
:1010f0003e029000e00f5200ecff3c001e02900008
:10110000180298001e027800040078004f04be0008
:101110000080fa00000006000200fa00000f7800cc
:101120001e027800b402900014002000e08f5200ec
:1011300001003c000002eb00040078000080fa008f
:10114000000006000200fa00000f78002002a9004b
:10115000041180000410a1000420a10004118800e3
:1011600020a2a9002062a8001e0278004411880075
:1011700021e2a8002342a8000080fa000000060037
:101180000200fa00004f78000000000015118000f6
:101190000420200004826200e00f5200fbff3a00ae
:1011a0001e02fb00241188000080fa0000000600e7
:1011b0000200fa00000000000540800004802000ca
:1011c00004826200e00f5200fbff32003411800005
:1011d000044f78000168a9001e427800044078009e
:1011e0000080fa00000006000400fa002047980082
:1011f0000042eb00044f7800070037002e429000b9
:101200000442e900844278002e42900004c2620049
:10121000244798001e4fe8002e429000e04f5200f5
:10122000f6ff3a001e427800044078000080fa0081
:10123000000006000400fa00204798002e429000ab
:10124000614f62001e427800044078000080fa007e
:10125000000006000000fa00881f7800000000006f
:10126000151180000420200004826200e00f52006b
:10127000fbff3a00a0c7b300c1ff070050c6b30090
:10128000bfff07000002eb00f48d88004700370025
:10129000f48d8000040078004afd07000002780009
:1012a0000442780004407800c2f1b700f48d800059
:1012b0000400780043fd07000002780005f02000dc
:1012c000050262004822de000442780004407800f3
:1012d000c3f1b700f48d800005012000042add0071
:1012e00084427800341c21001442780004c2720049
:1012f00004407800c3f1b700341c21001442780088
:1013000004407800b8ff070000447800241c210046
:101310001442780004407800b3ff070000427800d0
:101320000442440004407800c0f1b700241c2100ae
:101330001442780004407800beff070000447800a3
:10134000341c21001442780004407800b9ff0700e3
:10135000004278000442440004407800c1f1b70024
:10136000341c2100144278000440780084ff0700f8
:10137000241c2100144278000440780080ff0700fc
:10138000041c210014427800044078007cff070010
:10139000141c2100144278000440780078ff0700f4
:1013a000f48d80000402e800f48d8800f48d800044
:1013b000e20f5200b6ff36004f0478000080fa00ba
:1013c000000006003600f800809fbe00829fbe002d
:1013d000849fbe00869fbe000000fa000068a9003e
:1013e000a47080004622de006142620004c2ea006e
:1013f000614262000482fb00610262004622dd005d
:10140000a6708000f5fb2f00850263000482720045
:10141000a4708800801821003fff070000027800b8
:10142000e00f52000300320080182100b8fe0700d0
:1014300088ff07000042eb0004407800c4f1b700c9
:101440000080fa004f03be004f02be004f01be00f5
:101450004f00be003600f900004006000000fa0010
:1014600044042000343a8800243a80000460a1003b
:101470000470a100243a8800253a800004fe2f0061
:1014800004826200243a880036002000840720008d
:10149000a509200037742000844b7800854b780024
:1014a000864b78001600200064042000750520009b
:1014b00027742000844b7800854b7800864b780099
:1014c00000000000153a80000400270084826200ba
:1014d00004002300848f5200faff3a00000000004d
:1014e000153a80000402200004826200e00f5200de
:1014f000fbff320040a7a900240280000400a000e6
:101500002402880015348000f40f2c0084826200cd
:1015100004102000048272001434880025368000f4
:1015200004f82f008482620074022000048272009a
:101530002436880010cea90049fc0700600920006d
:1015400000ff07000080fa00000006000000fa001b
:10155000c0ff2f0023fc070061442000d0fa2d00bb
:1015600039fc070090ff2f000dfc0700c188200008
:10157000d0fa2d002efc07000080fa0000000600c3
:020000040000fa
:101580000010000094010000800000009411000091
:101590002a0000008200000000000000000000009f
:1015a000000000000000000000000000000000003b
:1015b000000000000000000000000000000000002b
:1015c000000000000000000000000000000000001b
:1015d000be110000060000008200000000000000b4
:1015e00000000000c41100000200000080000000a4
:0415f00000000000f7
:020000040000fa
:1015f4000000fa0098ff0700d3ff0700ffff370041
:00000001FF
