:020000040000fa
:080000000002040000000000f2
:020000040000fa
:100400002f0321000eff21000e01880000000000d4
:1004100000012000200288000c000700c0572000c7
:10042000010020000f000700000020000000e00095
:100430000200320000000200000000004a04020036
:10044000000000000040da000000fe002000200054
:100450000000e0000200320010002000900188003f
:1004600000000600a1028800800078000000eb0078
:100470001a003700e280400054a0b4009101ba0095
:10048000e280400054a0b4009102ba00e280400033
:1004900054a0b4000002eb00472bde00f507b200c9
:1004a000a6018800602ce10008003a000049eb003a
:1004b0000201e800020039003420ec0002f0a00044
:1004c0008301e900f9ff3e00040037006128e100e4
:1004d000010032000082eb00040007001101ba00a5
:1004e0000200e000e3ff3a000000060004d0a30091
:1004f000e20f49001c003900810278003549ba003a
:100500000201e800020039003420ec0002f0a000f3
:100510008301e9000f0032002549ba000201e8001a
:10052000020039003420ec0002f0a0008301e90051
:10053000080032000400e0000600320015c9ba00cd
:100540000201e800020039003420ec0002f0a000b3
:100550008301e9008180e80054a0b4000300e000ba
:10056000e2ff3a00000006009102ba000559780047
:100570008301e900f7ff3200c82ade000559780040
:100580008301e900f3ff32000400e000f1ff3200d4
:1005900011d9ba00eeff37000040da000000fe007b
:1005a0000000fa0021108800301088000080fa0056
:1005b000000006000000fa000822ab00feff320037
:1005c00008c2a900001080000080fa0000000600a8
:1005d0000000fa000080fb00101088000782a800cd
:1005e0000080fa00000006000000fa000108a900df
:1005f000e702600084ff2f002642800006026200ae
:100600000502720024428800680060004300de009a
:10061000610060004800dd00f4ef2f00054180001c
:100620000502620000027200044188000080fa00a6
:10063000000006000000fa000a21ef00710888009f
:0c064000900888000080fa00000006000e
:020000040000fa
:10000800cc020000cc020000cc020000cc020000b0
:10001800cc020000cc020000cc020000cc020000a0
:10002800cc020000cc020000cc020000cc02000090
:10003800cc020000cc020000cc020000cc02000080
:10004800de040000cc020000cc020000cc0200005c
:10005800cc020000cc020000cc020000cc02000060
:100068004c030000cc020000cc020000cc020000cf
:10007800cc020000cc020000cc020000cc02000040
:10008800cc020000cc020000cc020000cc02000030
:10009800cc020000cc020000cc020000cc02000020
:1000a800cc020000cc020000cc020000cc02000010
:020000040000fa
:04aff400ffff00005b
:020000040000fa
:04aff00078ff0000e6
:020000040000fa
:04afec00beff0000a4
:020000040000fa
:04afe8007fff0000e7
:020000040000fa
:04afe400ffff00006b
:020000040000fa
:04afe000cfff00009f
:020000040000fa
:10064c000000fa0014042000541088000208a900cd
:10065c002208a9000228a9002228a80007e2a80065
:10066c0006e2a8000762a9000782a90006c2a8003a
:10067c008000eb000080eb00c6ff07001406200092
:10068c00541088000080fa00000006003600f800c4
:10069c00809fbe00829fbe00849fbe00869fbe00ce
:1006ac000000fa001440800062026200e00f520069
:1006bc00020032000228a9006c00370045108000af
:1006cc000440200004826200e00f5200020032005d
:1006dc000942a800650037004410800064026200e3
:1006ec00e00f52000b003a0045108000040220007d
:1006fc0004826200e00f520006003a00aaff0700d5
:10070c00004278000440780008f0b7000782a80087
:10071c00550037004410800064026200e00f520064
:10072c000b003a0045108000040220000482620095
:10073c00e00f5200060032009bff070000427800d9
:10074c000440780019f0b7000782a8004600370073
:10075c004410800064026200e00f5200120032006c
:10076c00451080000402200004826200e00f520059
:10077c000d003a008cff070000427800044078001e
:10078c0008f0b7000002eb00548088000002eb0078
:10079c0064808800940121001442780004407800a1
:1007ac0088ff0700300037004410800064026200ac
:1007bc00e00f52002c003200451080000402200093
:1007cc0004826200e00f5200270032005480800047
:1007dc00e00f520022003a00548080000402e8002e
:1007ec0054808800548080006102620004427800ca
:1007fc00e04f520008003200648080000400780052
:10080c00a100070000027800044278000440780040
:10081c0018f0b7000d0037005480800061026200b0
:10082c00e00f520009003a00648080000400780058
:10083c00950007000042eb000440780018f0b70068
:10084c00648080000402e800648088008401210038
:10085c0014427800044078005aff07000200370069
:10086c000040eb0057ff07000208a9000080fa00c7
:10087c004f03be004f02be004f01be004f00be0032
:10088c003600f900004006000000fa00a80007003e
:10089c0040a7a900240280000400a00024028800c4
:1008ac000002eb0084708800174ea900176ea90097
:1008bc00178ea900b0ff2f0048ff0700f1ff2000a2
:1008cc00d0f92d0058ff0700ffff37000000fa0099
:1008dc0024f02100241988000002eb001419880070
:1008ec00041980000450a1000460a0000470a10051
:1008fc00041988002063a800041980000480a1005a
:10090c000490a100041988002043a8001419800049
:10091c000480a1000490a00014198800151980000f
:10092c0034f82f0004826200c400b300141988004c
:10093c002223a90025e3a90021e3a8004519800082
:10094c0004fe2f00048262003400b30044198800b6
:10095c0028e3a9002603a900341980000410a10083
:10096c000420a100341988000002eb0004708800f8
:10097c000002eb00147088000002eb007470880019
:10098c000002eb00f47088000e0ea8000e2ea800da
:10099c001e0ea8001e2ea800000ea800002ea800f7
:1009ac00100ea800102ea8000080fa00000006000f
:1009bc00849fbe000000fa000000000004198000b3
:1009cc0061026200e00f5200fcff32008470800074
:1009dc000482ea00847088000518800044188000a6
:1009ec00848242008418800084824200c4188000f3
:1009fc0004824200c222de00a402210035029800cb
:100a0c0015188000541880008482420094188000cd
:100a1c0084824200d418800004824200c222de008c
:100a2c00a4022100050a78002518800064188000b3
:100a3c0084824200a418800084824200e418800062
:100a4c0004824200c222de00a4022100150298009a
:100a5c00351880007418800084824200b41880001d
:100a6c0084824200f418800004824200c222de001c
:100a7c00a4022100250298000108a9000080fa00b8
:100a8c004f02be00004006000200fa00000f780082
:100a9c0015c0b3001e027800e00f520001003c00ac
:100aac008042eb0014c0b3001e037800e30f530028
:100abc00010034000042eb0004c26200e04f52001f
:100acc0006003200250221001e02780004024200ba
:100adc000482420014027800010037000082eb000f
:0c0aec00040078000080fa000000060002
:020000040000fa
:100af8000010000016000000800000001610000022
:100b08000c0000008200000000000000000000004f
:100b18000000000000000000221000000800000093
:100b2800800000002a10000008000000800000007b
:040b380000000000b9
:020000040000fa
:0c0b3c000000fa000080fa000000060033
:00000001FF
